{
	"avs_eigenlayer_sc/contracts/src/ERC20Mock.sol": {
		"ERC20Mock": {
			"abi": [
				{
					"anonymous": false,
					"inputs": [
						{
							"indexed": true,
							"internalType": "address",
							"name": "owner",
							"type": "address"
						},
						{
							"indexed": true,
							"internalType": "address",
							"name": "spender",
							"type": "address"
						},
						{
							"indexed": false,
							"internalType": "uint256",
							"name": "value",
							"type": "uint256"
						}
					],
					"name": "Approval",
					"type": "event"
				},
				{
					"anonymous": false,
					"inputs": [
						{
							"indexed": true,
							"internalType": "address",
							"name": "from",
							"type": "address"
						},
						{
							"indexed": true,
							"internalType": "address",
							"name": "to",
							"type": "address"
						},
						{
							"indexed": false,
							"internalType": "uint256",
							"name": "value",
							"type": "uint256"
						}
					],
					"name": "Transfer",
					"type": "event"
				},
				{
					"inputs": [
						{
							"internalType": "address",
							"name": "owner",
							"type": "address"
						},
						{
							"internalType": "address",
							"name": "spender",
							"type": "address"
						}
					],
					"name": "allowance",
					"outputs": [
						{
							"internalType": "uint256",
							"name": "",
							"type": "uint256"
						}
					],
					"stateMutability": "view",
					"type": "function"
				},
				{
					"inputs": [
						{
							"internalType": "address",
							"name": "",
							"type": "address"
						},
						{
							"internalType": "uint256",
							"name": "",
							"type": "uint256"
						}
					],
					"name": "approve",
					"outputs": [
						{
							"internalType": "bool",
							"name": "",
							"type": "bool"
						}
					],
					"stateMutability": "nonpayable",
					"type": "function"
				},
				{
					"inputs": [
						{
							"internalType": "address",
							"name": "account",
							"type": "address"
						}
					],
					"name": "balanceOf",
					"outputs": [
						{
							"internalType": "uint256",
							"name": "",
							"type": "uint256"
						}
					],
					"stateMutability": "view",
					"type": "function"
				},
				{
					"inputs": [
						{
							"internalType": "address",
							"name": "account",
							"type": "address"
						},
						{
							"internalType": "uint256",
							"name": "amount",
							"type": "uint256"
						}
					],
					"name": "mint",
					"outputs": [],
					"stateMutability": "nonpayable",
					"type": "function"
				},
				{
					"inputs": [],
					"name": "totalSupply",
					"outputs": [
						{
							"internalType": "uint256",
							"name": "",
							"type": "uint256"
						}
					],
					"stateMutability": "view",
					"type": "function"
				},
				{
					"inputs": [
						{
							"internalType": "address",
							"name": "to",
							"type": "address"
						},
						{
							"internalType": "uint256",
							"name": "amount",
							"type": "uint256"
						}
					],
					"name": "transfer",
					"outputs": [
						{
							"internalType": "bool",
							"name": "",
							"type": "bool"
						}
					],
					"stateMutability": "nonpayable",
					"type": "function"
				},
				{
					"inputs": [
						{
							"internalType": "address",
							"name": "from",
							"type": "address"
						},
						{
							"internalType": "address",
							"name": "to",
							"type": "address"
						},
						{
							"internalType": "uint256",
							"name": "amount",
							"type": "uint256"
						}
					],
					"name": "transferFrom",
					"outputs": [
						{
							"internalType": "bool",
							"name": "",
							"type": "bool"
						}
					],
					"stateMutability": "nonpayable",
					"type": "function"
				}
			],
			"devdoc": {
				"details": "Implementation of the {IERC20} interface. This implementation is agnostic to the way tokens are created. This means that a supply mechanism has to be added in a derived contract using {_mint}. For a generic mechanism see {ERC20PresetMinterPauser}. TIP: For a detailed writeup see our guide https://forum.openzeppelin.com/t/how-to-implement-erc20-supply-mechanisms/226[How to implement supply mechanisms]. The default value of {decimals} is 18. To change this, you should override this function so it returns a different value. We have followed general OpenZeppelin Contracts guidelines: functions revert instead returning `false` on failure. This behavior is nonetheless conventional and does not conflict with the expectations of ERC20 applications. Additionally, an {Approval} event is emitted on calls to {transferFrom}. This allows applications to reconstruct the allowance for all accounts just by listening to said events. Other implementations of the EIP may not emit these events, as it isn't required by the specification. Finally, the non-standard {decreaseAllowance} and {increaseAllowance} functions have been added to mitigate the well-known issues around setting allowances. See {IERC20-approve}.",
				"events": {
					"Approval(address,address,uint256)": {
						"details": "Emitted when the allowance of a `spender` for an `owner` is set by a call to {approve}. `value` is the new allowance."
					},
					"Transfer(address,address,uint256)": {
						"details": "Emitted when `value` tokens are moved from one account (`from`) to another (`to`). Note that `value` may be zero."
					}
				},
				"kind": "dev",
				"methods": {
					"allowance(address,address)": {
						"details": "See {IERC20-allowance}."
					},
					"approve(address,uint256)": {
						"details": "See {IERC20-approve}. NOTE: If `amount` is the maximum `uint256`, the allowance is not updated on `transferFrom`. This is semantically equivalent to an infinite approval. Requirements: - `spender` cannot be the zero address."
					},
					"balanceOf(address)": {
						"details": "See {IERC20-balanceOf}."
					},
					"totalSupply()": {
						"details": "See {IERC20-totalSupply}."
					},
					"transfer(address,uint256)": {
						"details": "See {IERC20-transfer}. Requirements: - `to` cannot be the zero address. - the caller must have a balance of at least `amount`."
					},
					"transferFrom(address,address,uint256)": {
						"details": "See {IERC20-transferFrom}. Emits an {Approval} event indicating the updated allowance. This is not required by the EIP. See the note at the beginning of {ERC20}. NOTE: Does not update the allowance if the current allowance is the maximum `uint256`. Requirements: - `from` and `to` cannot be the zero address. - `from` must have a balance of at least `amount`. - the caller must have allowance for ``from``'s tokens of at least `amount`."
					}
				},
				"version": 1
			},
			"evm": {
				"assembly": "    /* \"avs_eigenlayer_sc/contracts/src/ERC20Mock.sol\":1542:9861  contract ERC20Mock is Context, IERC20 {... */\n  mstore(0x40, 0x80)\n  callvalue\n  dup1\n  iszero\n  tag_1\n  jumpi\n  0x00\n  dup1\n  revert\ntag_1:\n  pop\n  dataSize(sub_0)\n  dup1\n  dataOffset(sub_0)\n  0x00\n  codecopy\n  0x00\n  return\nstop\n\nsub_0: assembly {\n        /* \"avs_eigenlayer_sc/contracts/src/ERC20Mock.sol\":1542:9861  contract ERC20Mock is Context, IERC20 {... */\n      mstore(0x40, 0x80)\n      callvalue\n      dup1\n      iszero\n      tag_1\n      jumpi\n      0x00\n      dup1\n      revert\n    tag_1:\n      pop\n      jumpi(tag_2, lt(calldatasize, 0x04))\n      shr(0xe0, calldataload(0x00))\n      dup1\n      0x40c10f19\n      gt\n      tag_10\n      jumpi\n      dup1\n      0x40c10f19\n      eq\n      tag_6\n      jumpi\n      dup1\n      0x70a08231\n      eq\n      tag_7\n      jumpi\n      dup1\n      0xa9059cbb\n      eq\n      tag_8\n      jumpi\n      dup1\n      0xdd62ed3e\n      eq\n      tag_9\n      jumpi\n      0x00\n      dup1\n      revert\n    tag_10:\n      dup1\n      0x095ea7b3\n      eq\n      tag_3\n      jumpi\n      dup1\n      0x18160ddd\n      eq\n      tag_4\n      jumpi\n      dup1\n      0x23b872dd\n      eq\n      tag_5\n      jumpi\n    tag_2:\n      0x00\n      dup1\n      revert\n        /* \"avs_eigenlayer_sc/contracts/src/ERC20Mock.sol\":3147:3294  function approve(... */\n    tag_3:\n      tag_11\n      tag_12\n      calldatasize\n      0x04\n      tag_13\n      jump\t// in\n    tag_12:\n      tag_14\n      jump\t// in\n    tag_11:\n      mload(0x40)\n        /* \"#utility.yul\":616:630   */\n      swap1\n      iszero\n        /* \"#utility.yul\":609:631   */\n      iszero\n        /* \"#utility.yul\":591:632   */\n      dup2\n      mstore\n        /* \"#utility.yul\":579:581   */\n      0x20\n        /* \"#utility.yul\":564:582   */\n      add\n        /* \"avs_eigenlayer_sc/contracts/src/ERC20Mock.sol\":3147:3294  function approve(... */\n    tag_15:\n      mload(0x40)\n      dup1\n      swap2\n      sub\n      swap1\n      return\n        /* \"avs_eigenlayer_sc/contracts/src/ERC20Mock.sol\":1801:1907  function totalSupply() public view virtual override returns (uint256) {... */\n    tag_4:\n        /* \"avs_eigenlayer_sc/contracts/src/ERC20Mock.sol\":1888:1900  _totalSupply */\n      sload(0x02)\n        /* \"avs_eigenlayer_sc/contracts/src/ERC20Mock.sol\":1801:1907  function totalSupply() public view virtual override returns (uint256) {... */\n    tag_17:\n      mload(0x40)\n        /* \"#utility.yul\":789:814   */\n      swap1\n      dup2\n      mstore\n        /* \"#utility.yul\":777:779   */\n      0x20\n        /* \"#utility.yul\":762:780   */\n      add\n        /* \"avs_eigenlayer_sc/contracts/src/ERC20Mock.sol\":1801:1907  function totalSupply() public view virtual override returns (uint256) {... */\n      tag_15\n        /* \"#utility.yul\":643:820   */\n      jump\n        /* \"avs_eigenlayer_sc/contracts/src/ERC20Mock.sol\":3856:4054  function transferFrom(... */\n    tag_5:\n      tag_11\n      tag_22\n      calldatasize\n      0x04\n      tag_23\n      jump\t// in\n    tag_22:\n      tag_24\n      jump\t// in\n        /* \"avs_eigenlayer_sc/contracts/src/ERC20Mock.sol\":2110:2203  function mint(address account, uint256 amount) public {... */\n    tag_6:\n      tag_26\n      tag_27\n      calldatasize\n      0x04\n      tag_13\n      jump\t// in\n    tag_27:\n      tag_28\n      jump\t// in\n    tag_26:\n      stop\n        /* \"avs_eigenlayer_sc/contracts/src/ERC20Mock.sol\":1965:2104  function balanceOf(... */\n    tag_7:\n      tag_17\n      tag_30\n      calldatasize\n      0x04\n      tag_31\n      jump\t// in\n    tag_30:\n      sub(shl(0xa0, 0x01), 0x01)\n        /* \"avs_eigenlayer_sc/contracts/src/ERC20Mock.sol\":2079:2097  _balances[account] */\n      and\n        /* \"avs_eigenlayer_sc/contracts/src/ERC20Mock.sol\":2053:2060  uint256 */\n      0x00\n        /* \"avs_eigenlayer_sc/contracts/src/ERC20Mock.sol\":2079:2097  _balances[account] */\n      swap1\n      dup2\n      mstore\n      0x20\n      dup2\n      swap1\n      mstore\n      0x40\n      swap1\n      keccak256\n      sload\n      swap1\n        /* \"avs_eigenlayer_sc/contracts/src/ERC20Mock.sol\":1965:2104  function balanceOf(... */\n      jump\n        /* \"avs_eigenlayer_sc/contracts/src/ERC20Mock.sol\":2399:2610  function transfer(... */\n    tag_8:\n      tag_11\n      tag_35\n      calldatasize\n      0x04\n      tag_13\n      jump\t// in\n    tag_35:\n      tag_36\n      jump\t// in\n        /* \"avs_eigenlayer_sc/contracts/src/ERC20Mock.sol\":2668:2839  function allowance(... */\n    tag_9:\n      tag_17\n      tag_39\n      calldatasize\n      0x04\n      tag_40\n      jump\t// in\n    tag_39:\n      sub(shl(0xa0, 0x01), 0x01)\n        /* \"avs_eigenlayer_sc/contracts/src/ERC20Mock.sol\":2805:2823  _allowances[owner] */\n      swap2\n      dup3\n      and\n        /* \"avs_eigenlayer_sc/contracts/src/ERC20Mock.sol\":2779:2786  uint256 */\n      0x00\n        /* \"avs_eigenlayer_sc/contracts/src/ERC20Mock.sol\":2805:2823  _allowances[owner] */\n      swap1\n      dup2\n      mstore\n        /* \"avs_eigenlayer_sc/contracts/src/ERC20Mock.sol\":2805:2816  _allowances */\n      0x01\n        /* \"avs_eigenlayer_sc/contracts/src/ERC20Mock.sol\":2805:2823  _allowances[owner] */\n      0x20\n      swap1\n      dup2\n      mstore\n      0x40\n      dup1\n      dup4\n      keccak256\n        /* \"avs_eigenlayer_sc/contracts/src/ERC20Mock.sol\":2805:2832  _allowances[owner][spender] */\n      swap4\n      swap1\n      swap5\n      and\n      dup3\n      mstore\n      swap2\n      swap1\n      swap2\n      mstore\n      keccak256\n      sload\n      swap1\n        /* \"avs_eigenlayer_sc/contracts/src/ERC20Mock.sol\":2668:2839  function allowance(... */\n      jump\n        /* \"avs_eigenlayer_sc/contracts/src/ERC20Mock.sol\":3147:3294  function approve(... */\n    tag_14:\n        /* \"avs_eigenlayer_sc/contracts/src/ERC20Mock.sol\":3283:3287  true */\n      0x01\n        /* \"avs_eigenlayer_sc/contracts/src/ERC20Mock.sol\":3147:3294  function approve(... */\n    tag_43:\n      swap3\n      swap2\n      pop\n      pop\n      jump\t// out\n        /* \"avs_eigenlayer_sc/contracts/src/ERC20Mock.sol\":3856:4054  function transferFrom(... */\n    tag_24:\n        /* \"avs_eigenlayer_sc/contracts/src/ERC20Mock.sol\":3983:3987  bool */\n      0x00\n        /* \"avs_eigenlayer_sc/contracts/src/ERC20Mock.sol\":3999:4026  _transfer(from, to, amount) */\n      tag_46\n        /* \"avs_eigenlayer_sc/contracts/src/ERC20Mock.sol\":4009:4013  from */\n      dup5\n        /* \"avs_eigenlayer_sc/contracts/src/ERC20Mock.sol\":4015:4017  to */\n      dup5\n        /* \"avs_eigenlayer_sc/contracts/src/ERC20Mock.sol\":4019:4025  amount */\n      dup5\n        /* \"avs_eigenlayer_sc/contracts/src/ERC20Mock.sol\":3999:4008  _transfer */\n      tag_47\n        /* \"avs_eigenlayer_sc/contracts/src/ERC20Mock.sol\":3999:4026  _transfer(from, to, amount) */\n      jump\t// in\n    tag_46:\n      pop\n        /* \"avs_eigenlayer_sc/contracts/src/ERC20Mock.sol\":4043:4047  true */\n      0x01\n        /* \"avs_eigenlayer_sc/contracts/src/ERC20Mock.sol\":3856:4054  function transferFrom(... */\n      swap4\n      swap3\n      pop\n      pop\n      pop\n      jump\t// out\n        /* \"avs_eigenlayer_sc/contracts/src/ERC20Mock.sol\":2110:2203  function mint(address account, uint256 amount) public {... */\n    tag_28:\n        /* \"avs_eigenlayer_sc/contracts/src/ERC20Mock.sol\":2174:2196  _mint(account, amount) */\n      tag_49\n        /* \"avs_eigenlayer_sc/contracts/src/ERC20Mock.sol\":2180:2187  account */\n      dup3\n        /* \"avs_eigenlayer_sc/contracts/src/ERC20Mock.sol\":2189:2195  amount */\n      dup3\n        /* \"avs_eigenlayer_sc/contracts/src/ERC20Mock.sol\":2174:2179  _mint */\n      tag_50\n        /* \"avs_eigenlayer_sc/contracts/src/ERC20Mock.sol\":2174:2196  _mint(account, amount) */\n      jump\t// in\n    tag_49:\n        /* \"avs_eigenlayer_sc/contracts/src/ERC20Mock.sol\":2110:2203  function mint(address account, uint256 amount) public {... */\n      pop\n      pop\n      jump\t// out\n        /* \"avs_eigenlayer_sc/contracts/src/ERC20Mock.sol\":2399:2610  function transfer(... */\n    tag_36:\n        /* \"avs_eigenlayer_sc/contracts/src/ERC20Mock.sol\":2500:2504  bool */\n      0x00\n        /* \"@openzeppelin/contracts/utils/Context.sol\":735:745  msg.sender */\n      caller\n        /* \"avs_eigenlayer_sc/contracts/src/ERC20Mock.sol\":2554:2582  _transfer(owner, to, amount) */\n      tag_46\n        /* \"@openzeppelin/contracts/utils/Context.sol\":735:745  msg.sender */\n      dup2\n        /* \"avs_eigenlayer_sc/contracts/src/ERC20Mock.sol\":2571:2573  to */\n      dup6\n        /* \"avs_eigenlayer_sc/contracts/src/ERC20Mock.sol\":2575:2581  amount */\n      dup6\n        /* \"avs_eigenlayer_sc/contracts/src/ERC20Mock.sol\":4508:5321  function _transfer(... */\n    tag_47:\n      sub(shl(0xa0, 0x01), 0x01)\n        /* \"avs_eigenlayer_sc/contracts/src/ERC20Mock.sol\":4634:4652  from != address(0) */\n      dup4\n      and\n        /* \"avs_eigenlayer_sc/contracts/src/ERC20Mock.sol\":4626:4694  require(from != address(0), \"ERC20: transfer from the zero address\") */\n      tag_58\n      jumpi\n      mload(0x40)\n      shl(0xe5, 0x461bcd)\n      dup2\n      mstore\n        /* \"#utility.yul\":1816:1818   */\n      0x20\n        /* \"avs_eigenlayer_sc/contracts/src/ERC20Mock.sol\":4626:4694  require(from != address(0), \"ERC20: transfer from the zero address\") */\n      0x04\n      dup3\n      add\n        /* \"#utility.yul\":1798:1819   */\n      mstore\n        /* \"#utility.yul\":1855:1857   */\n      0x25\n        /* \"#utility.yul\":1835:1853   */\n      0x24\n      dup3\n      add\n        /* \"#utility.yul\":1828:1858   */\n      mstore\n        /* \"#utility.yul\":1894:1928   */\n      0x45524332303a207472616e736665722066726f6d20746865207a65726f206164\n        /* \"#utility.yul\":1874:1892   */\n      0x44\n      dup3\n      add\n        /* \"#utility.yul\":1867:1929   */\n      mstore\n      shl(0xd8, 0x6472657373)\n        /* \"#utility.yul\":1945:1963   */\n      0x64\n      dup3\n      add\n        /* \"#utility.yul\":1938:1973   */\n      mstore\n        /* \"#utility.yul\":1990:2009   */\n      0x84\n      add\n        /* \"avs_eigenlayer_sc/contracts/src/ERC20Mock.sol\":4626:4694  require(from != address(0), \"ERC20: transfer from the zero address\") */\n    tag_59:\n      mload(0x40)\n      dup1\n      swap2\n      sub\n      swap1\n      revert\n    tag_58:\n      sub(shl(0xa0, 0x01), 0x01)\n        /* \"avs_eigenlayer_sc/contracts/src/ERC20Mock.sol\":4712:4728  to != address(0) */\n      dup3\n      and\n        /* \"avs_eigenlayer_sc/contracts/src/ERC20Mock.sol\":4704:4768  require(to != address(0), \"ERC20: transfer to the zero address\") */\n      tag_61\n      jumpi\n      mload(0x40)\n      shl(0xe5, 0x461bcd)\n      dup2\n      mstore\n        /* \"#utility.yul\":2222:2224   */\n      0x20\n        /* \"avs_eigenlayer_sc/contracts/src/ERC20Mock.sol\":4704:4768  require(to != address(0), \"ERC20: transfer to the zero address\") */\n      0x04\n      dup3\n      add\n        /* \"#utility.yul\":2204:2225   */\n      mstore\n        /* \"#utility.yul\":2261:2263   */\n      0x23\n        /* \"#utility.yul\":2241:2259   */\n      0x24\n      dup3\n      add\n        /* \"#utility.yul\":2234:2264   */\n      mstore\n        /* \"#utility.yul\":2300:2334   */\n      0x45524332303a207472616e7366657220746f20746865207a65726f2061646472\n        /* \"#utility.yul\":2280:2298   */\n      0x44\n      dup3\n      add\n        /* \"#utility.yul\":2273:2335   */\n      mstore\n      shl(0xe8, 0x657373)\n        /* \"#utility.yul\":2351:2369   */\n      0x64\n      dup3\n      add\n        /* \"#utility.yul\":2344:2377   */\n      mstore\n        /* \"#utility.yul\":2394:2413   */\n      0x84\n      add\n        /* \"avs_eigenlayer_sc/contracts/src/ERC20Mock.sol\":4704:4768  require(to != address(0), \"ERC20: transfer to the zero address\") */\n      tag_59\n        /* \"#utility.yul\":2020:2419   */\n      jump\n        /* \"avs_eigenlayer_sc/contracts/src/ERC20Mock.sol\":4704:4768  require(to != address(0), \"ERC20: transfer to the zero address\") */\n    tag_61:\n      sub(shl(0xa0, 0x01), 0x01)\n        /* \"avs_eigenlayer_sc/contracts/src/ERC20Mock.sol\":4849:4864  _balances[from] */\n      dup4\n      and\n        /* \"avs_eigenlayer_sc/contracts/src/ERC20Mock.sol\":4849:4858  _balances */\n      0x00\n        /* \"avs_eigenlayer_sc/contracts/src/ERC20Mock.sol\":4849:4864  _balances[from] */\n      swap1\n      dup2\n      mstore\n      0x20\n      dup2\n      swap1\n      mstore\n      0x40\n      swap1\n      keccak256\n      sload\n        /* \"avs_eigenlayer_sc/contracts/src/ERC20Mock.sol\":4849:4874  _balances[from] >= amount */\n      dup2\n      gt\n      iszero\n        /* \"avs_eigenlayer_sc/contracts/src/ERC20Mock.sol\":4828:4938  require(... */\n      tag_66\n      jumpi\n      mload(0x40)\n      shl(0xe5, 0x461bcd)\n      dup2\n      mstore\n        /* \"#utility.yul\":2626:2628   */\n      0x20\n        /* \"avs_eigenlayer_sc/contracts/src/ERC20Mock.sol\":4828:4938  require(... */\n      0x04\n      dup3\n      add\n        /* \"#utility.yul\":2608:2629   */\n      mstore\n        /* \"#utility.yul\":2665:2667   */\n      0x26\n        /* \"#utility.yul\":2645:2663   */\n      0x24\n      dup3\n      add\n        /* \"#utility.yul\":2638:2668   */\n      mstore\n        /* \"#utility.yul\":2704:2738   */\n      0x45524332303a207472616e7366657220616d6f756e7420657863656564732062\n        /* \"#utility.yul\":2684:2702   */\n      0x44\n      dup3\n      add\n        /* \"#utility.yul\":2677:2739   */\n      mstore\n      shl(0xd0, 0x616c616e6365)\n        /* \"#utility.yul\":2755:2773   */\n      0x64\n      dup3\n      add\n        /* \"#utility.yul\":2748:2784   */\n      mstore\n        /* \"#utility.yul\":2801:2820   */\n      0x84\n      add\n        /* \"avs_eigenlayer_sc/contracts/src/ERC20Mock.sol\":4828:4938  require(... */\n      tag_59\n        /* \"#utility.yul\":2424:2826   */\n      jump\n        /* \"avs_eigenlayer_sc/contracts/src/ERC20Mock.sol\":4828:4938  require(... */\n    tag_66:\n      sub(shl(0xa0, 0x01), 0x01)\n        /* \"avs_eigenlayer_sc/contracts/src/ERC20Mock.sol\":4990:5005  _balances[from] */\n      dup4\n      dup2\n      and\n        /* \"avs_eigenlayer_sc/contracts/src/ERC20Mock.sol\":4990:4999  _balances */\n      0x00\n        /* \"avs_eigenlayer_sc/contracts/src/ERC20Mock.sol\":4990:5005  _balances[from] */\n      dup2\n      dup2\n      mstore\n      0x20\n      dup2\n      dup2\n      mstore\n      0x40\n      dup1\n      dup4\n      keccak256\n      dup1\n      sload\n        /* \"avs_eigenlayer_sc/contracts/src/ERC20Mock.sol\":4990:5014  _balances[from] - amount */\n      dup8\n      swap1\n      sub\n        /* \"avs_eigenlayer_sc/contracts/src/ERC20Mock.sol\":4972:5014  _balances[from] = _balances[from] - amount */\n      swap1\n      sstore\n        /* \"avs_eigenlayer_sc/contracts/src/ERC20Mock.sol\":5191:5204  _balances[to] */\n      swap4\n      dup7\n      and\n      dup1\n      dup4\n      mstore\n      swap2\n      dup5\n      swap1\n      keccak256\n        /* \"avs_eigenlayer_sc/contracts/src/ERC20Mock.sol\":5191:5214  _balances[to] += amount */\n      dup1\n      sload\n      dup7\n      add\n      swap1\n      sstore\n        /* \"avs_eigenlayer_sc/contracts/src/ERC20Mock.sol\":5240:5266  Transfer(from, to, amount) */\n      swap3\n      mload\n        /* \"#utility.yul\":789:814   */\n      dup5\n      dup2\n      mstore\n        /* \"avs_eigenlayer_sc/contracts/src/ERC20Mock.sol\":5191:5204  _balances[to] */\n      swap1\n      swap3\n        /* \"avs_eigenlayer_sc/contracts/src/ERC20Mock.sol\":5240:5266  Transfer(from, to, amount) */\n      0xddf252ad1be2c89b69c2b068fc378daa952ba7f163c4a11628f55a4df523b3ef\n      swap2\n        /* \"#utility.yul\":762:780   */\n      add\n        /* \"avs_eigenlayer_sc/contracts/src/ERC20Mock.sol\":5240:5266  Transfer(from, to, amount) */\n      mload(0x40)\n      dup1\n      swap2\n      sub\n      swap1\n      log3\n        /* \"avs_eigenlayer_sc/contracts/src/ERC20Mock.sol\":4508:5321  function _transfer(... */\n      pop\n      pop\n      pop\n      jump\t// out\n        /* \"avs_eigenlayer_sc/contracts/src/ERC20Mock.sol\":5597:6013  function _mint(address account, uint256 amount) internal virtual {... */\n    tag_50:\n      sub(shl(0xa0, 0x01), 0x01)\n        /* \"avs_eigenlayer_sc/contracts/src/ERC20Mock.sol\":5680:5701  account != address(0) */\n      dup3\n      and\n        /* \"avs_eigenlayer_sc/contracts/src/ERC20Mock.sol\":5672:5737  require(account != address(0), \"ERC20: mint to the zero address\") */\n      tag_73\n      jumpi\n      mload(0x40)\n      shl(0xe5, 0x461bcd)\n      dup2\n      mstore\n        /* \"#utility.yul\":3033:3035   */\n      0x20\n        /* \"avs_eigenlayer_sc/contracts/src/ERC20Mock.sol\":5672:5737  require(account != address(0), \"ERC20: mint to the zero address\") */\n      0x04\n      dup3\n      add\n        /* \"#utility.yul\":3015:3036   */\n      mstore\n        /* \"#utility.yul\":3072:3074   */\n      0x1f\n        /* \"#utility.yul\":3052:3070   */\n      0x24\n      dup3\n      add\n        /* \"#utility.yul\":3045:3075   */\n      mstore\n        /* \"#utility.yul\":3111:3144   */\n      0x45524332303a206d696e7420746f20746865207a65726f206164647265737300\n        /* \"#utility.yul\":3091:3109   */\n      0x44\n      dup3\n      add\n        /* \"#utility.yul\":3084:3145   */\n      mstore\n        /* \"#utility.yul\":3162:3180   */\n      0x64\n      add\n        /* \"avs_eigenlayer_sc/contracts/src/ERC20Mock.sol\":5672:5737  require(account != address(0), \"ERC20: mint to the zero address\") */\n      tag_59\n        /* \"#utility.yul\":2831:3186   */\n      jump\n        /* \"avs_eigenlayer_sc/contracts/src/ERC20Mock.sol\":5672:5737  require(account != address(0), \"ERC20: mint to the zero address\") */\n    tag_73:\n        /* \"avs_eigenlayer_sc/contracts/src/ERC20Mock.sol\":5764:5770  amount */\n      dup1\n        /* \"avs_eigenlayer_sc/contracts/src/ERC20Mock.sol\":5748:5760  _totalSupply */\n      0x02\n      0x00\n        /* \"avs_eigenlayer_sc/contracts/src/ERC20Mock.sol\":5748:5770  _totalSupply += amount */\n      dup3\n      dup3\n      sload\n      tag_76\n      swap2\n      swap1\n      tag_77\n      jump\t// in\n    tag_76:\n      swap1\n      swap2\n      sstore\n      pop\n      pop\n      sub(shl(0xa0, 0x01), 0x01)\n        /* \"avs_eigenlayer_sc/contracts/src/ERC20Mock.sol\":5916:5934  _balances[account] */\n      dup3\n      and\n        /* \"avs_eigenlayer_sc/contracts/src/ERC20Mock.sol\":5916:5925  _balances */\n      0x00\n        /* \"avs_eigenlayer_sc/contracts/src/ERC20Mock.sol\":5916:5934  _balances[account] */\n      dup2\n      dup2\n      mstore\n      0x20\n      dup2\n      dup2\n      mstore\n      0x40\n      dup1\n      dup4\n      keccak256\n        /* \"avs_eigenlayer_sc/contracts/src/ERC20Mock.sol\":5916:5944  _balances[account] += amount */\n      dup1\n      sload\n      dup7\n      add\n      swap1\n      sstore\n        /* \"avs_eigenlayer_sc/contracts/src/ERC20Mock.sol\":5969:6006  Transfer(address(0), account, amount) */\n      mload\n        /* \"#utility.yul\":789:814   */\n      dup5\n      dup2\n      mstore\n        /* \"avs_eigenlayer_sc/contracts/src/ERC20Mock.sol\":5969:6006  Transfer(address(0), account, amount) */\n      0xddf252ad1be2c89b69c2b068fc378daa952ba7f163c4a11628f55a4df523b3ef\n      swap2\n        /* \"#utility.yul\":762:780   */\n      add\n        /* \"avs_eigenlayer_sc/contracts/src/ERC20Mock.sol\":5969:6006  Transfer(address(0), account, amount) */\n      mload(0x40)\n      dup1\n      swap2\n      sub\n      swap1\n      log3\n        /* \"avs_eigenlayer_sc/contracts/src/ERC20Mock.sol\":5597:6013  function _mint(address account, uint256 amount) internal virtual {... */\n      pop\n      pop\n      jump\t// out\n        /* \"#utility.yul\":14:187   */\n    tag_82:\n        /* \"#utility.yul\":82:102   */\n      dup1\n      calldataload\n      sub(shl(0xa0, 0x01), 0x01)\n        /* \"#utility.yul\":131:162   */\n      dup2\n      and\n        /* \"#utility.yul\":121:163   */\n      dup2\n      eq\n        /* \"#utility.yul\":111:181   */\n      tag_85\n      jumpi\n        /* \"#utility.yul\":177:178   */\n      0x00\n        /* \"#utility.yul\":174:175   */\n      dup1\n        /* \"#utility.yul\":167:179   */\n      revert\n        /* \"#utility.yul\":111:181   */\n    tag_85:\n        /* \"#utility.yul\":14:187   */\n      swap2\n      swap1\n      pop\n      jump\t// out\n        /* \"#utility.yul\":192:446   */\n    tag_13:\n        /* \"#utility.yul\":260:266   */\n      0x00\n        /* \"#utility.yul\":268:274   */\n      dup1\n        /* \"#utility.yul\":321:323   */\n      0x40\n        /* \"#utility.yul\":309:318   */\n      dup4\n        /* \"#utility.yul\":300:307   */\n      dup6\n        /* \"#utility.yul\":296:319   */\n      sub\n        /* \"#utility.yul\":292:324   */\n      slt\n        /* \"#utility.yul\":289:341   */\n      iszero\n      tag_87\n      jumpi\n        /* \"#utility.yul\":337:338   */\n      0x00\n        /* \"#utility.yul\":334:335   */\n      dup1\n        /* \"#utility.yul\":327:339   */\n      revert\n        /* \"#utility.yul\":289:341   */\n    tag_87:\n        /* \"#utility.yul\":360:389   */\n      tag_88\n        /* \"#utility.yul\":379:388   */\n      dup4\n        /* \"#utility.yul\":360:389   */\n      tag_82\n      jump\t// in\n    tag_88:\n        /* \"#utility.yul\":350:389   */\n      swap5\n        /* \"#utility.yul\":436:438   */\n      0x20\n        /* \"#utility.yul\":421:439   */\n      swap4\n      swap1\n      swap4\n      add\n        /* \"#utility.yul\":408:440   */\n      calldataload\n      swap4\n      pop\n      pop\n      pop\n        /* \"#utility.yul\":192:446   */\n      jump\t// out\n        /* \"#utility.yul\":825:1153   */\n    tag_23:\n        /* \"#utility.yul\":902:908   */\n      0x00\n        /* \"#utility.yul\":910:916   */\n      dup1\n        /* \"#utility.yul\":918:924   */\n      0x00\n        /* \"#utility.yul\":971:973   */\n      0x60\n        /* \"#utility.yul\":959:968   */\n      dup5\n        /* \"#utility.yul\":950:957   */\n      dup7\n        /* \"#utility.yul\":946:969   */\n      sub\n        /* \"#utility.yul\":942:974   */\n      slt\n        /* \"#utility.yul\":939:991   */\n      iszero\n      tag_92\n      jumpi\n        /* \"#utility.yul\":987:988   */\n      0x00\n        /* \"#utility.yul\":984:985   */\n      dup1\n        /* \"#utility.yul\":977:989   */\n      revert\n        /* \"#utility.yul\":939:991   */\n    tag_92:\n        /* \"#utility.yul\":1010:1039   */\n      tag_93\n        /* \"#utility.yul\":1029:1038   */\n      dup5\n        /* \"#utility.yul\":1010:1039   */\n      tag_82\n      jump\t// in\n    tag_93:\n        /* \"#utility.yul\":1000:1039   */\n      swap3\n      pop\n        /* \"#utility.yul\":1058:1096   */\n      tag_94\n        /* \"#utility.yul\":1092:1094   */\n      0x20\n        /* \"#utility.yul\":1081:1090   */\n      dup6\n        /* \"#utility.yul\":1077:1095   */\n      add\n        /* \"#utility.yul\":1058:1096   */\n      tag_82\n      jump\t// in\n    tag_94:\n        /* \"#utility.yul\":1048:1096   */\n      swap2\n      pop\n        /* \"#utility.yul\":1143:1145   */\n      0x40\n        /* \"#utility.yul\":1132:1141   */\n      dup5\n        /* \"#utility.yul\":1128:1146   */\n      add\n        /* \"#utility.yul\":1115:1147   */\n      calldataload\n        /* \"#utility.yul\":1105:1147   */\n      swap1\n      pop\n        /* \"#utility.yul\":825:1153   */\n      swap3\n      pop\n      swap3\n      pop\n      swap3\n      jump\t// out\n        /* \"#utility.yul\":1158:1344   */\n    tag_31:\n        /* \"#utility.yul\":1217:1223   */\n      0x00\n        /* \"#utility.yul\":1270:1272   */\n      0x20\n        /* \"#utility.yul\":1258:1267   */\n      dup3\n        /* \"#utility.yul\":1249:1256   */\n      dup5\n        /* \"#utility.yul\":1245:1268   */\n      sub\n        /* \"#utility.yul\":1241:1273   */\n      slt\n        /* \"#utility.yul\":1238:1290   */\n      iszero\n      tag_96\n      jumpi\n        /* \"#utility.yul\":1286:1287   */\n      0x00\n        /* \"#utility.yul\":1283:1284   */\n      dup1\n        /* \"#utility.yul\":1276:1288   */\n      revert\n        /* \"#utility.yul\":1238:1290   */\n    tag_96:\n        /* \"#utility.yul\":1309:1338   */\n      tag_97\n        /* \"#utility.yul\":1328:1337   */\n      dup3\n        /* \"#utility.yul\":1309:1338   */\n      tag_82\n      jump\t// in\n    tag_97:\n        /* \"#utility.yul\":1299:1338   */\n      swap4\n        /* \"#utility.yul\":1158:1344   */\n      swap3\n      pop\n      pop\n      pop\n      jump\t// out\n        /* \"#utility.yul\":1349:1609   */\n    tag_40:\n        /* \"#utility.yul\":1417:1423   */\n      0x00\n        /* \"#utility.yul\":1425:1431   */\n      dup1\n        /* \"#utility.yul\":1478:1480   */\n      0x40\n        /* \"#utility.yul\":1466:1475   */\n      dup4\n        /* \"#utility.yul\":1457:1464   */\n      dup6\n        /* \"#utility.yul\":1453:1476   */\n      sub\n        /* \"#utility.yul\":1449:1481   */\n      slt\n        /* \"#utility.yul\":1446:1498   */\n      iszero\n      tag_99\n      jumpi\n        /* \"#utility.yul\":1494:1495   */\n      0x00\n        /* \"#utility.yul\":1491:1492   */\n      dup1\n        /* \"#utility.yul\":1484:1496   */\n      revert\n        /* \"#utility.yul\":1446:1498   */\n    tag_99:\n        /* \"#utility.yul\":1517:1546   */\n      tag_100\n        /* \"#utility.yul\":1536:1545   */\n      dup4\n        /* \"#utility.yul\":1517:1546   */\n      tag_82\n      jump\t// in\n    tag_100:\n        /* \"#utility.yul\":1507:1546   */\n      swap2\n      pop\n        /* \"#utility.yul\":1565:1603   */\n      tag_101\n        /* \"#utility.yul\":1599:1601   */\n      0x20\n        /* \"#utility.yul\":1588:1597   */\n      dup5\n        /* \"#utility.yul\":1584:1602   */\n      add\n        /* \"#utility.yul\":1565:1603   */\n      tag_82\n      jump\t// in\n    tag_101:\n        /* \"#utility.yul\":1555:1603   */\n      swap1\n      pop\n        /* \"#utility.yul\":1349:1609   */\n      swap3\n      pop\n      swap3\n      swap1\n      pop\n      jump\t// out\n        /* \"#utility.yul\":3191:3413   */\n    tag_77:\n        /* \"#utility.yul\":3256:3265   */\n      dup1\n      dup3\n      add\n        /* \"#utility.yul\":3277:3287   */\n      dup1\n      dup3\n      gt\n        /* \"#utility.yul\":3274:3407   */\n      iszero\n      tag_43\n      jumpi\n        /* \"#utility.yul\":3329:3339   */\n      0x4e487b71\n        /* \"#utility.yul\":3324:3327   */\n      0xe0\n        /* \"#utility.yul\":3320:3340   */\n      shl\n        /* \"#utility.yul\":3317:3318   */\n      0x00\n        /* \"#utility.yul\":3310:3341   */\n      mstore\n        /* \"#utility.yul\":3364:3368   */\n      0x11\n        /* \"#utility.yul\":3361:3362   */\n      0x04\n        /* \"#utility.yul\":3354:3369   */\n      mstore\n        /* \"#utility.yul\":3392:3396   */\n      0x24\n        /* \"#utility.yul\":3389:3390   */\n      0x00\n        /* \"#utility.yul\":3382:3397   */\n      revert\n\n    auxdata: 0xa26469706673582212207745ee35001432547ae80437d0959967bd8cca6decd7b28c8b5efa826a1c16a564736f6c63430008190033\n}\n",
				"bytecode": {
					"linkReferences": {},
					"object": "6080604052348015600e575f80fd5b506105108061001c5f395ff3fe608060405234801561000f575f80fd5b506004361061007a575f3560e01c806340c10f191161005857806340c10f19146100cb57806370a08231146100e0578063a9059cbb14610108578063dd62ed3e1461011b575f80fd5b8063095ea7b31461007e57806318160ddd146100a657806323b872dd146100b8575b5f80fd5b61009161008c366004610409565b610153565b60405190151581526020015b60405180910390f35b6002545b60405190815260200161009d565b6100916100c6366004610431565b61015c565b6100de6100d9366004610409565b610172565b005b6100aa6100ee36600461046a565b6001600160a01b03165f9081526020819052604090205490565b610091610116366004610409565b610180565b6100aa61012936600461048a565b6001600160a01b039182165f90815260016020908152604080832093909416825291909152205490565b60015b92915050565b5f610168848484610189565b5060019392505050565b61017c8282610331565b5050565b5f336101688185855b6001600160a01b0383166101f25760405162461bcd60e51b815260206004820152602560248201527f45524332303a207472616e736665722066726f6d20746865207a65726f206164604482015264647265737360d81b60648201526084015b60405180910390fd5b6001600160a01b0382166102545760405162461bcd60e51b815260206004820152602360248201527f45524332303a207472616e7366657220746f20746865207a65726f206164647260448201526265737360e81b60648201526084016101e9565b6001600160a01b0383165f908152602081905260409020548111156102ca5760405162461bcd60e51b815260206004820152602660248201527f45524332303a207472616e7366657220616d6f756e7420657863656564732062604482015265616c616e636560d01b60648201526084016101e9565b6001600160a01b038381165f818152602081815260408083208054879003905593861680835291849020805486019055925184815290927fddf252ad1be2c89b69c2b068fc378daa952ba7f163c4a11628f55a4df523b3ef910160405180910390a3505050565b6001600160a01b0382166103875760405162461bcd60e51b815260206004820152601f60248201527f45524332303a206d696e7420746f20746865207a65726f20616464726573730060448201526064016101e9565b8060025f82825461039891906104bb565b90915550506001600160a01b0382165f81815260208181526040808320805486019055518481527fddf252ad1be2c89b69c2b068fc378daa952ba7f163c4a11628f55a4df523b3ef910160405180910390a35050565b80356001600160a01b0381168114610404575f80fd5b919050565b5f806040838503121561041a575f80fd5b610423836103ee565b946020939093013593505050565b5f805f60608486031215610443575f80fd5b61044c846103ee565b925061045a602085016103ee565b9150604084013590509250925092565b5f6020828403121561047a575f80fd5b610483826103ee565b9392505050565b5f806040838503121561049b575f80fd5b6104a4836103ee565b91506104b2602084016103ee565b90509250929050565b8082018082111561015657634e487b7160e01b5f52601160045260245ffdfea26469706673582212207745ee35001432547ae80437d0959967bd8cca6decd7b28c8b5efa826a1c16a564736f6c63430008190033",
					"opcodes": "PUSH1 0x80 PUSH1 0x40 MSTORE CALLVALUE DUP1 ISZERO PUSH1 0xE JUMPI PUSH0 DUP1 REVERT JUMPDEST POP PUSH2 0x510 DUP1 PUSH2 0x1C PUSH0 CODECOPY PUSH0 RETURN INVALID PUSH1 0x80 PUSH1 0x40 MSTORE CALLVALUE DUP1 ISZERO PUSH2 0xF JUMPI PUSH0 DUP1 REVERT JUMPDEST POP PUSH1 0x4 CALLDATASIZE LT PUSH2 0x7A JUMPI PUSH0 CALLDATALOAD PUSH1 0xE0 SHR DUP1 PUSH4 0x40C10F19 GT PUSH2 0x58 JUMPI DUP1 PUSH4 0x40C10F19 EQ PUSH2 0xCB JUMPI DUP1 PUSH4 0x70A08231 EQ PUSH2 0xE0 JUMPI DUP1 PUSH4 0xA9059CBB EQ PUSH2 0x108 JUMPI DUP1 PUSH4 0xDD62ED3E EQ PUSH2 0x11B JUMPI PUSH0 DUP1 REVERT JUMPDEST DUP1 PUSH4 0x95EA7B3 EQ PUSH2 0x7E JUMPI DUP1 PUSH4 0x18160DDD EQ PUSH2 0xA6 JUMPI DUP1 PUSH4 0x23B872DD EQ PUSH2 0xB8 JUMPI JUMPDEST PUSH0 DUP1 REVERT JUMPDEST PUSH2 0x91 PUSH2 0x8C CALLDATASIZE PUSH1 0x4 PUSH2 0x409 JUMP JUMPDEST PUSH2 0x153 JUMP JUMPDEST PUSH1 0x40 MLOAD SWAP1 ISZERO ISZERO DUP2 MSTORE PUSH1 0x20 ADD JUMPDEST PUSH1 0x40 MLOAD DUP1 SWAP2 SUB SWAP1 RETURN JUMPDEST PUSH1 0x2 SLOAD JUMPDEST PUSH1 0x40 MLOAD SWAP1 DUP2 MSTORE PUSH1 0x20 ADD PUSH2 0x9D JUMP JUMPDEST PUSH2 0x91 PUSH2 0xC6 CALLDATASIZE PUSH1 0x4 PUSH2 0x431 JUMP JUMPDEST PUSH2 0x15C JUMP JUMPDEST PUSH2 0xDE PUSH2 0xD9 CALLDATASIZE PUSH1 0x4 PUSH2 0x409 JUMP JUMPDEST PUSH2 0x172 JUMP JUMPDEST STOP JUMPDEST PUSH2 0xAA PUSH2 0xEE CALLDATASIZE PUSH1 0x4 PUSH2 0x46A JUMP JUMPDEST PUSH1 0x1 PUSH1 0x1 PUSH1 0xA0 SHL SUB AND PUSH0 SWAP1 DUP2 MSTORE PUSH1 0x20 DUP2 SWAP1 MSTORE PUSH1 0x40 SWAP1 KECCAK256 SLOAD SWAP1 JUMP JUMPDEST PUSH2 0x91 PUSH2 0x116 CALLDATASIZE PUSH1 0x4 PUSH2 0x409 JUMP JUMPDEST PUSH2 0x180 JUMP JUMPDEST PUSH2 0xAA PUSH2 0x129 CALLDATASIZE PUSH1 0x4 PUSH2 0x48A JUMP JUMPDEST PUSH1 0x1 PUSH1 0x1 PUSH1 0xA0 SHL SUB SWAP2 DUP3 AND PUSH0 SWAP1 DUP2 MSTORE PUSH1 0x1 PUSH1 0x20 SWAP1 DUP2 MSTORE PUSH1 0x40 DUP1 DUP4 KECCAK256 SWAP4 SWAP1 SWAP5 AND DUP3 MSTORE SWAP2 SWAP1 SWAP2 MSTORE KECCAK256 SLOAD SWAP1 JUMP JUMPDEST PUSH1 0x1 JUMPDEST SWAP3 SWAP2 POP POP JUMP JUMPDEST PUSH0 PUSH2 0x168 DUP5 DUP5 DUP5 PUSH2 0x189 JUMP JUMPDEST POP PUSH1 0x1 SWAP4 SWAP3 POP POP POP JUMP JUMPDEST PUSH2 0x17C DUP3 DUP3 PUSH2 0x331 JUMP JUMPDEST POP POP JUMP JUMPDEST PUSH0 CALLER PUSH2 0x168 DUP2 DUP6 DUP6 JUMPDEST PUSH1 0x1 PUSH1 0x1 PUSH1 0xA0 SHL SUB DUP4 AND PUSH2 0x1F2 JUMPI PUSH1 0x40 MLOAD PUSH3 0x461BCD PUSH1 0xE5 SHL DUP2 MSTORE PUSH1 0x20 PUSH1 0x4 DUP3 ADD MSTORE PUSH1 0x25 PUSH1 0x24 DUP3 ADD MSTORE PUSH32 0x45524332303A207472616E736665722066726F6D20746865207A65726F206164 PUSH1 0x44 DUP3 ADD MSTORE PUSH5 0x6472657373 PUSH1 0xD8 SHL PUSH1 0x64 DUP3 ADD MSTORE PUSH1 0x84 ADD JUMPDEST PUSH1 0x40 MLOAD DUP1 SWAP2 SUB SWAP1 REVERT JUMPDEST PUSH1 0x1 PUSH1 0x1 PUSH1 0xA0 SHL SUB DUP3 AND PUSH2 0x254 JUMPI PUSH1 0x40 MLOAD PUSH3 0x461BCD PUSH1 0xE5 SHL DUP2 MSTORE PUSH1 0x20 PUSH1 0x4 DUP3 ADD MSTORE PUSH1 0x23 PUSH1 0x24 DUP3 ADD MSTORE PUSH32 0x45524332303A207472616E7366657220746F20746865207A65726F2061646472 PUSH1 0x44 DUP3 ADD MSTORE PUSH3 0x657373 PUSH1 0xE8 SHL PUSH1 0x64 DUP3 ADD MSTORE PUSH1 0x84 ADD PUSH2 0x1E9 JUMP JUMPDEST PUSH1 0x1 PUSH1 0x1 PUSH1 0xA0 SHL SUB DUP4 AND PUSH0 SWAP1 DUP2 MSTORE PUSH1 0x20 DUP2 SWAP1 MSTORE PUSH1 0x40 SWAP1 KECCAK256 SLOAD DUP2 GT ISZERO PUSH2 0x2CA JUMPI PUSH1 0x40 MLOAD PUSH3 0x461BCD PUSH1 0xE5 SHL DUP2 MSTORE PUSH1 0x20 PUSH1 0x4 DUP3 ADD MSTORE PUSH1 0x26 PUSH1 0x24 DUP3 ADD MSTORE PUSH32 0x45524332303A207472616E7366657220616D6F756E7420657863656564732062 PUSH1 0x44 DUP3 ADD MSTORE PUSH6 0x616C616E6365 PUSH1 0xD0 SHL PUSH1 0x64 DUP3 ADD MSTORE PUSH1 0x84 ADD PUSH2 0x1E9 JUMP JUMPDEST PUSH1 0x1 PUSH1 0x1 PUSH1 0xA0 SHL SUB DUP4 DUP2 AND PUSH0 DUP2 DUP2 MSTORE PUSH1 0x20 DUP2 DUP2 MSTORE PUSH1 0x40 DUP1 DUP4 KECCAK256 DUP1 SLOAD DUP8 SWAP1 SUB SWAP1 SSTORE SWAP4 DUP7 AND DUP1 DUP4 MSTORE SWAP2 DUP5 SWAP1 KECCAK256 DUP1 SLOAD DUP7 ADD SWAP1 SSTORE SWAP3 MLOAD DUP5 DUP2 MSTORE SWAP1 SWAP3 PUSH32 0xDDF252AD1BE2C89B69C2B068FC378DAA952BA7F163C4A11628F55A4DF523B3EF SWAP2 ADD PUSH1 0x40 MLOAD DUP1 SWAP2 SUB SWAP1 LOG3 POP POP POP JUMP JUMPDEST PUSH1 0x1 PUSH1 0x1 PUSH1 0xA0 SHL SUB DUP3 AND PUSH2 0x387 JUMPI PUSH1 0x40 MLOAD PUSH3 0x461BCD PUSH1 0xE5 SHL DUP2 MSTORE PUSH1 0x20 PUSH1 0x4 DUP3 ADD MSTORE PUSH1 0x1F PUSH1 0x24 DUP3 ADD MSTORE PUSH32 0x45524332303A206D696E7420746F20746865207A65726F206164647265737300 PUSH1 0x44 DUP3 ADD MSTORE PUSH1 0x64 ADD PUSH2 0x1E9 JUMP JUMPDEST DUP1 PUSH1 0x2 PUSH0 DUP3 DUP3 SLOAD PUSH2 0x398 SWAP2 SWAP1 PUSH2 0x4BB JUMP JUMPDEST SWAP1 SWAP2 SSTORE POP POP PUSH1 0x1 PUSH1 0x1 PUSH1 0xA0 SHL SUB DUP3 AND PUSH0 DUP2 DUP2 MSTORE PUSH1 0x20 DUP2 DUP2 MSTORE PUSH1 0x40 DUP1 DUP4 KECCAK256 DUP1 SLOAD DUP7 ADD SWAP1 SSTORE MLOAD DUP5 DUP2 MSTORE PUSH32 0xDDF252AD1BE2C89B69C2B068FC378DAA952BA7F163C4A11628F55A4DF523B3EF SWAP2 ADD PUSH1 0x40 MLOAD DUP1 SWAP2 SUB SWAP1 LOG3 POP POP JUMP JUMPDEST DUP1 CALLDATALOAD PUSH1 0x1 PUSH1 0x1 PUSH1 0xA0 SHL SUB DUP2 AND DUP2 EQ PUSH2 0x404 JUMPI PUSH0 DUP1 REVERT JUMPDEST SWAP2 SWAP1 POP JUMP JUMPDEST PUSH0 DUP1 PUSH1 0x40 DUP4 DUP6 SUB SLT ISZERO PUSH2 0x41A JUMPI PUSH0 DUP1 REVERT JUMPDEST PUSH2 0x423 DUP4 PUSH2 0x3EE JUMP JUMPDEST SWAP5 PUSH1 0x20 SWAP4 SWAP1 SWAP4 ADD CALLDATALOAD SWAP4 POP POP POP JUMP JUMPDEST PUSH0 DUP1 PUSH0 PUSH1 0x60 DUP5 DUP7 SUB SLT ISZERO PUSH2 0x443 JUMPI PUSH0 DUP1 REVERT JUMPDEST PUSH2 0x44C DUP5 PUSH2 0x3EE JUMP JUMPDEST SWAP3 POP PUSH2 0x45A PUSH1 0x20 DUP6 ADD PUSH2 0x3EE JUMP JUMPDEST SWAP2 POP PUSH1 0x40 DUP5 ADD CALLDATALOAD SWAP1 POP SWAP3 POP SWAP3 POP SWAP3 JUMP JUMPDEST PUSH0 PUSH1 0x20 DUP3 DUP5 SUB SLT ISZERO PUSH2 0x47A JUMPI PUSH0 DUP1 REVERT JUMPDEST PUSH2 0x483 DUP3 PUSH2 0x3EE JUMP JUMPDEST SWAP4 SWAP3 POP POP POP JUMP JUMPDEST PUSH0 DUP1 PUSH1 0x40 DUP4 DUP6 SUB SLT ISZERO PUSH2 0x49B JUMPI PUSH0 DUP1 REVERT JUMPDEST PUSH2 0x4A4 DUP4 PUSH2 0x3EE JUMP JUMPDEST SWAP2 POP PUSH2 0x4B2 PUSH1 0x20 DUP5 ADD PUSH2 0x3EE JUMP JUMPDEST SWAP1 POP SWAP3 POP SWAP3 SWAP1 POP JUMP JUMPDEST DUP1 DUP3 ADD DUP1 DUP3 GT ISZERO PUSH2 0x156 JUMPI PUSH4 0x4E487B71 PUSH1 0xE0 SHL PUSH0 MSTORE PUSH1 0x11 PUSH1 0x4 MSTORE PUSH1 0x24 PUSH0 REVERT INVALID LOG2 PUSH5 0x6970667358 0x22 SLT KECCAK256 PUSH24 0x45EE35001432547AE80437D0959967BD8CCA6DECD7B28C8B MCOPY STATICCALL DUP3 PUSH11 0x1C16A564736F6C63430008 NOT STOP CALLER "
				},
				"gasEstimates": {
					"creation": {
						"codeDepositCost": "259200",
						"executionCost": "298",
						"totalCost": "259498"
					},
					"external": {
						"allowance(address,address)": "infinite",
						"approve(address,uint256)": "388",
						"balanceOf(address)": "2559",
						"mint(address,uint256)": "50801",
						"totalSupply()": "2303",
						"transfer(address,uint256)": "53149",
						"transferFrom(address,address,uint256)": "infinite"
					},
					"internal": {
						"_afterTokenTransfer(address,address,uint256)": "infinite",
						"_approve(address,address,uint256)": "infinite",
						"_beforeTokenTransfer(address,address,uint256)": "infinite",
						"_burn(address,uint256)": "infinite",
						"_mint(address,uint256)": "infinite",
						"_spendAllowance(address,address,uint256)": "infinite",
						"_transfer(address,address,uint256)": "infinite"
					}
				},
				"methodIdentifiers": {
					"allowance(address,address)": "dd62ed3e",
					"approve(address,uint256)": "095ea7b3",
					"balanceOf(address)": "70a08231",
					"mint(address,uint256)": "40c10f19",
					"totalSupply()": "18160ddd",
					"transfer(address,uint256)": "a9059cbb",
					"transferFrom(address,address,uint256)": "23b872dd"
				}
			},
			"storageLayout": {
				"storage": [
					{
						"astId": 124,
						"contract": "avs_eigenlayer_sc/contracts/src/ERC20Mock.sol:ERC20Mock",
						"label": "_balances",
						"offset": 0,
						"slot": "0",
						"type": "t_mapping(t_address,t_uint256)"
					},
					{
						"astId": 130,
						"contract": "avs_eigenlayer_sc/contracts/src/ERC20Mock.sol:ERC20Mock",
						"label": "_allowances",
						"offset": 0,
						"slot": "1",
						"type": "t_mapping(t_address,t_mapping(t_address,t_uint256))"
					},
					{
						"astId": 132,
						"contract": "avs_eigenlayer_sc/contracts/src/ERC20Mock.sol:ERC20Mock",
						"label": "_totalSupply",
						"offset": 0,
						"slot": "2",
						"type": "t_uint256"
					}
				],
				"types": {
					"t_address": {
						"encoding": "inplace",
						"label": "address",
						"numberOfBytes": "20"
					},
					"t_mapping(t_address,t_mapping(t_address,t_uint256))": {
						"encoding": "mapping",
						"key": "t_address",
						"label": "mapping(address => mapping(address => uint256))",
						"numberOfBytes": "32",
						"value": "t_mapping(t_address,t_uint256)"
					},
					"t_mapping(t_address,t_uint256)": {
						"encoding": "mapping",
						"key": "t_address",
						"label": "mapping(address => uint256)",
						"numberOfBytes": "32",
						"value": "t_uint256"
					},
					"t_uint256": {
						"encoding": "inplace",
						"label": "uint256",
						"numberOfBytes": "32"
					}
				}
			},
			"userdoc": {
				"kind": "user",
				"methods": {},
				"version": 1
			}
		}
	}
}